:100000000C9462000C948A000C948A000C948A0070
:100010000C948A000C948A000C948A000C948A0038
:100020000C948A000C948A000C948A000C948A0028
:100030000C948A000C948A000C948A000C948A0018
:100040000C94FA020C948A000C94C0020C94850261
:100050000C948A000C948A000C948A000C948A00F8
:100060000C948A000C948A000000000024002700F1
:100070002A0000000000250028002B0000000007D7
:100080000002010000030406000000000000000060
:1000900000000000230026002900040404040404D6
:1000A0000404020202020202030303030303010227
:1000B00004081020408001020408102001020408F6
:1000C0001020440311241FBECFEFD8E0DEBFCDBF08
:1000D00011E0A0E0B1E0EEE8FFE002C005900D9273
:1000E000AE32B107D9F721E0AEE2B1E001C01D9216
:1000F000A53EB207E1F710E0C2E6D0E004C02197C8
:10010000FE010E94B007C136D107C9F70E947F03E4
:100110000C94AF050C94000008950F931F93CF9398
:10012000DF93FC01A685B7858D01005C1F4FE801B8
:100130008881998101968F739927AD014E5B5F4F3E
:10014000EA012881398128173907D1F3E80128818C
:100150003981A20FB31F6C93A685B785A05CBF4FF2
:1001600011969C938E93A689B7892C9181E090E09B
:10017000078C02C0880F991F0A94E2F7822B8C9398
:1001800081E081A30488F589E02D808180648083EB
:1001900081E090E0DF91CF911F910F910895FC01D4
:1001A00081A1882329F0A489B5898C9186FFFBCF92
:1001B00011A20895FC01A485B585FD01E05CFF4F07
:1001C000208131813296808191812817390779F019
:1001D00080819181A80FB91F8C91208131812F5F7F
:1001E0003F4F2F7333273183208390E008958FEFA3
:1001F0009FEF0895DC011C96ED91FC911D97DF01A6
:10020000A05CBF4F2D913C91119712968D919C91BE
:1002100011972817390739F08D919C91E80FF91F34
:10022000808190E008958FEF9FEF0895FC01248571
:100230003585F901E05CFF4F808191813296208104
:100240003181821B930B8F739927089583EC91E082
:100250000C941601CF92DF92EF92FF920F931F93AF
:10026000CF93DF936C01EB017B01E40EF51E00E000
:1002700010E0CE15DF0561F06991D601ED91FC919A
:100280000190F081E02DC6010995080F191FF1CFEB
:10029000C801DF91CF911F910F91FF90EF90DF90F8
:1002A000CF90089590E0FC01E458FF4F2491FC01A9
:1002B000E255FF4F3491FC01E656FF4FE491EE23E7
:1002C00009F43CC0222339F1233091F038F4213075
:1002D000A9F0223001F584B58F7D12C0263091F04F
:1002E0002730A1F02430B9F4809180008F7D03C0C5
:1002F000809180008F77809380000DC084B58F77C8
:1003000084BD09C08091B0008F7703C08091B00098
:100310008F7D8093B000F0E0EE0FFF1FEE58FF4F8F
:10032000A591B4919FB7F894611104C08C91309558
:10033000382302C0EC913E2B3C939FBF0895CF938E
:10034000DF9390E0FC01E255FF4F2491FC01E6565B
:10035000FF4F8491882361F190E0880F991FFC0181
:10036000E859FF4FC591D491FC01EE58FF4FA5917C
:10037000B491611109C09FB7F894888120958223B8
:100380008883EC912E230BC0623061F49FB7F89400
:100390008881322F309583238883EC912E2B2C93E8
:1003A0009FBF06C08FB7F894E8812E2B28838FBF9C
:1003B000DF91CF9108953FB7F894809133019091E8
:1003C0003401A0913501B091360126B5A89B05C036
:1003D0002F3F19F00196A11DB11D3FBFBA2FA92FC4
:1003E000982F8827820F911DA11DB11DBC01CD0141
:1003F00042E0660F771F881F991F4A95D1F708952D
:10040000CF92DF92EF92FF92CF93DF936B017C014B
:100410000E94DB01EB01C114D104E104F10479F085
:100420000E94DB016C1B7D0B683E7340A0F381E0F2
:10043000C81AD108E108F108C851DC4FECCFDF91B0
:10044000CF91FF90EF90DF90CF900895009769F0E3
:10045000FC0101900020E9F73197AF01481B590BCF
:10046000BC0183EC91E00C942A0180E090E00895B7
:100470008F929F92AF92BF92EF92FF920F931F9332
:10048000CF93DF93CDB7DEB7A1970FB6F894DEBF59
:100490000FBECDBF162F042F19A2423008F40AE078
:1004A0007E0121E2E20EF11C802E912CA12CB12CB8
:1004B000612FA50194010E948307029F1019112446
:1004C00081E0E81AF1081A3014F4105D01C0195CDB
:1004D000F7011083122F732FCA01232B242B252BF6
:1004E00039F7C7010E942602A1960FB6F894DEBF25
:1004F0000FBECDBFDF91CF911F910F91FF90EF9075
:10050000BF90AF909F908F9008951F920F920FB65B
:100510000F9211242F933F938F939F93EF93FF9309
:1005200020917B0130917C0180917D0190917E0131
:100530002817390731F48091C1008F7D8093C10065
:1005400014C0E0917D01F0917E01E55CFE4F2081B9
:1005500080917D0190917E0101968F7399279093F0
:100560007E0180937D012093C600FF91EF919F91C2
:100570008F913F912F910F900FBE0F901F90189564
:100580001F920F920FB60F9211242F934F935F93E8
:100590008F939F93EF93FF938091C00082FD1CC0C7
:1005A0002091C6008091BF019091C0014091C1018E
:1005B0005091C20101968F7399274817590771F01E
:1005C000E091BF01F091C001E158FE4F208390936C
:1005D000C0018093BF0102C08091C600FF91EF91DE
:1005E0009F918F915F914F912F910F900FBE0F9020
:1005F0001F9018951F920F920FB60F9211242F93F0
:100600003F938F939F93AF93BF9380912F019091CE
:100610003001A0913101B091320130912E0123E0DF
:10062000230F2D3720F40196A11DB11D05C026E82A
:10063000230F0296A11DB11D20932E0180932F013F
:1006400090933001A0933101B09332018091330136
:1006500090913401A0913501B09136010196A11D10
:10066000B11D8093330190933401A0933501B09371
:100670003601BF91AF919F918F913F912F910F9034
:100680000FBE0F901F901895E3ECF1E013821282D9
:1006900088EE93E0A0E0B0E084839583A683B783DF
:1006A00084E091E0918380838FE791E09587848750
:1006B0008BE391E09787868785EC90E0918B808B28
:1006C00084EC90E0938B828B80EC90E0958B848B14
:1006D00081EC90E0978B868B82EC90E0918F808FFD
:1006E00086EC90E0938F828F84E0848F83E0858F07
:1006F00087E0868F85E0878F81E080A308957894D6
:1007000084B5826084BD84B5816084BD85B5826016
:1007100085BD85B5816085BD80916E0081608093C7
:100720006E00109281008091810082608093810030
:100730008091810081608093810080918000816040
:10074000809380008091B10084608093B10080919B
:10075000B00081608093B00080917A0084608093C3
:100760007A0080917A00826080937A0080917A008A
:10077000816080937A0080917A00806880937A000B
:100780001092C10061E086E00E949F0160E087E076
:100790000E949F0161E085E00E949F01E091D701E6
:1007A000F091D80181E090E09C010090E30102C04B
:1007B000220F331F0A94E2F72083E091D301F091D6
:1007C000D4011082E091D501F091D6012FEC208365
:1007D0001092E401E091D901F091DA0140819C018D
:1007E0000090DF0102C0220F331F0A94E2F7242B8E
:1007F0002083E091D901F091DA0140819C010090C1
:10080000E00102C0220F331F0A94E2F7242B208359
:10081000E091D901F091DA0140819C010090E10161
:1008200002C0220F331F0A94E2F7242B2083E091A9
:10083000D901F091DA0120810090E20102C0880F15
:10084000991F0A94E2F7809582238083C2E2D0E068
:1008500041EA242E40E0342E50E4852E52E4952EB9
:100860005FE0A52EB12C61E086E00E945201CE012E
:100870000197F1F760E086E00E945201E5EBF0E0BD
:100880001491F101849190E0880F991F80579F4F38
:1008900040E050E0BA01FC01A591B4912C912123D4
:1008A000121317C04F5F5F4F6F4F7F4F4134F2E419
:1008B0005F07FFE06F07710571F73FC04F5F5F4F44
:1008C0006F4F7F4F413422E452072FE062077105DA
:1008D000A1F1FC01A591B4912C9121231213EECF2B
:1008E00075016401C41AD50AE60AF70A20E030E06F
:1008F000A901FC01A591B4916C91612316130AC062
:100900002C153D054E055F05C1F02F5F3F4F4F4F42
:100910005F4FEFCFA5E1B0E00E94A507DC01CB015E
:100920004096A11DB11DBC01CD0124E0969587958F
:10093000779567952A95D1F703C060E070E0CB0109
:100940000E945A062DEB37E346E855E30E94110753
:1009500020E030E04AE253E40E94110720E030E05A
:1009600048EC52E40E9411076093370170933801FC
:100970008093390190933A0120E030E040E251E465
:100980000E941F061816DCF004E610E061E085E026
:100990000E94520162E070E080E090E00E9400025C
:1009A00060E085E00E94520162E070E080E090E04B
:1009B0000E9400020150110949F761E001C060E0A6
:1009C00085E00E94520180E191E00E942602C090E1
:1009D0003701D0903801E0903901F0903A01A70139
:1009E0009601C701B6010E947E07882319F08BE1AA
:1009F00091E01AC026013701E89477F82FEF3FEF16
:100A00004FE75FE7C301B2010E947E0781110FC06B
:100A10002FEF3FEF4FE75FE7C301B2010E941F06D0
:100A200018162CF48FE191E00E94260281C02FEF6E
:100A30003FEF4FE75FE4C701B6010E940C071816AD
:100A40001CF483E291E0F0CF2FEF3FEF4FE75FEC34
:100A5000C701B6010E941F0687FDF3CF20E030E0FA
:100A6000A901C701B6010E941F0687FF09C06DE2F8
:100A700083EC91E00E948D00F7FAF094F7F8F0947F
:100A80002AE037ED43EA5BE3C701B6010E94B305F4
:100A90006B017C010E942B062B013C010E945A062F
:100AA0009B01AC01C701B6010E94B2056B017C013C
:100AB0004AE0C301B2010E94380287E291E00E943D
:100AC000260213E01150A1F120E030E040E251E4B1
:100AD000C701B6010E9411072B013C010E942406A8
:100AE0006B01770FEE08FF08F7FE10C06DE283EC94
:100AF00091E00E948D0088279927DC018C199D09BF
:100B0000AE09BF094AE0BC01CD0103C04AE0C701FC
:100B1000B6010E943802C701B6010E945C069B0123
:100B2000AC01C301B2010E94B2056B017C01CACFC6
:100B300089E291E00E9426026DE083EC91E00E9440
:100B40008D006AE083EC91E00E948D0064EF71E01B
:100B500080E090E00E9400020E94260184CEF8947A
:100B60000C94C5075058BB27AA270E94CA050C94AD
:100B7000D2060E94C40638F00E94CB0620F039F459
:100B80009F3F19F426F40C94C1060EF4E095E7FBA0
:100B90000C94BB06E92F0E94E30658F3BA176207CC
:100BA00073078407950720F079F4A6F50C940507E0
:100BB0000EF4E0950B2EBA2FA02D0B01B901900178
:100BC0000C01CA01A0011124FF27591B99F0593FBC
:100BD00050F4503E68F11A16F040A22F232F342F04
:100BE0004427585FF3CF469537952795A795F04052
:100BF0005395C9F77EF41F16BA0B620B730B840B67
:100C0000BAF09150A1F0FF0FBB1F661F771F881F1E
:100C1000C2F70EC0BA0F621F731F841F48F4879576
:100C200077956795B795F7959E3F08F0B0CF939568
:100C3000880F08F09927EE0F9795879508950E94E1
:100C4000970608F481E008950E942B066894B1117C
:100C50000C94060708950E94EB0688F09F5798F0C1
:100C6000B92F9927B751B0F0E1F0660F771F881FB1
:100C7000991F1AF0BA95C9F714C0B13091F00E94CB
:100C80000507B1E008950C940507672F782F882792
:100C9000B85F39F0B93FCCF3869577956795B395F2
:100CA000D9F73EF490958095709561957F4F8F4F61
:100CB0009F4F0895E89409C097FB3EF49095809566
:100CC000709561957F4F8F4F9F4F9923A9F0F92F12
:100CD00096E9BB279395F695879577956795B79590
:100CE000F111F8CFFAF4BB0F11F460FF1BC06F5F76
:100CF0007F4F8F4F9F4F16C0882311F096E911C088
:100D0000772321F09EE8872F762F05C0662371F0A8
:100D100096E8862F70E060E02AF09A95660F771FBC
:100D2000881FDAF7880F9695879597F90895990F98
:100D30000008550FAA0BE0E8FEEF16161706E807A5
:100D4000F907C0F012161306E407F50798F0621BC6
:100D5000730B840B950B39F40A2661F0232B242B9B
:100D6000252B21F408950A2609F4A140A6958FEFBA
:100D7000811D811D089597F99F6780E870E060E00C
:100D800008959FEF80EC089500240A941616170624
:100D900018060906089500240A941216130614066C
:100DA00005060895092E0394000C11F4882352F0CF
:100DB000BB0F40F4BF2B11F460FF04C06F5F7F4F87
:100DC0008F4F9F4F089557FD9058440F551F59F06E
:100DD0005F3F71F04795880F97FB991F61F09F3F28
:100DE00079F087950895121613061406551FF2CF51
:100DF0004695F1DF08C0161617061806991FF1CFA1
:100E000086957105610508940895E894BB276627C7
:100E10007727CB0197F908950E94970608F48FEF82
:100E200008950E9424070C94D2060E94C40638F04C
:100E30000E94CB0620F0952311F00C94BB060C9475
:100E4000C10611240C9406070E94E30670F3959FD7
:100E5000C1F3950F50E0551F629FF001729FBB27B1
:100E6000F00DB11D639FAA27F00DB11DAA1F649F4D
:100E70006627B00DA11D661F829F2227B00DA11D00
:100E8000621F739FB00DA11D621F839FA00D611D86
:100E9000221F749F3327A00D611D231F849F600DA7
:100EA000211D822F762F6A2F11249F5750409AF0D0
:100EB000F1F088234AF0EE0FFF1FBB1F661F771F5C
:100EC000881F91505040A9F79E3F510580F00C9427
:100ED000BB060C9406075F3FE4F3983ED4F3869577
:100EE00077956795B795F795E7959F5FC1F7FE2BC7
:100EF000880F911D9695879597F908950E949706FA
:100F0000880B990B0895A1E21A2EAA1BBB1BFD01A9
:100F10000DC0AA1FBB1FEE1FFF1FA217B307E407D8
:100F2000F50720F0A21BB30BE40BF50B661F771F30
:100F3000881F991F1A9469F7609570958095909510
:100F40009B01AC01BD01CF0108950E94B607A59F8A
:100F5000900DB49F900DA49F800D911D11240895B4
:100F6000EE0FFF1F0590F491E02D0994A29FB001B0
:100F7000B39FC001A39F700D811D1124911DB29FCD
:0E0F8000700D811D1124911D0895F894FFCF6E
:100F8E00000000008D002A011601DA00FA00CF00E1
:100F9E0064697374616E63653A20006E616E0069F8
:0E0FAE006E66006F7666002E0020636D0000F8
:00000001FF
