:100000000C945D000C9485000C9485000C94850084
:100010000C9485000C9485000C9485000C9485004C
:100020000C9485000C9485000C9485000C9485003C
:100030000C9485000C9485000C9485000C9485002C
:100040000C94F9010C9485000C947E020C944302EC
:100050000C9485000C9485000C9485000C9485000C
:100060000C9485000C94850000000007000201003C
:100070000003040600000000000000000000000073
:10008000250028002B0000000000240027002A0083
:10009000040404040404040402020202020203032E
:1000A0000303030301020408102040800102040836
:1000B0001020010204081020B80211241FBECFEF47
:1000C000D8E0DEBFCDBF11E0A0E0B1E0EAE5FDE0A1
:1000D00002C005900D92AE31B107D9F721E0AEE133
:1000E000B1E001C01D92A53DB207E1F710E0CDE5FA
:1000F000D0E004C02197FE010E94A506CC35D107AF
:10010000C9F70E94F3020C94AF040C940000089508
:100110000F931F93CF93DF93FC01A685B7858D01C5
:10012000005C1F4FE8018881998101968F739927A0
:10013000AD014E5B5F4FEA012881398128173907ED
:10014000D1F3E80128813981A20FB31F6C93A685F2
:10015000B785A05CBF4F11969C938E93A689B789F3
:100160002C9181E090E0078C02C0880F991F0A94BF
:10017000E2F7822B8C9381E081A30488F589E02D3E
:1001800080818064808381E090E0DF91CF911F9136
:100190000F910895FC0181A1882329F0A489B589D4
:1001A0008C9186FFFBCF11A20895FC01A485B58533
:1001B000FD01E05CFF4F2081318132968081918189
:1001C0002817390779F080819181A80FB91F8C9188
:1001D000208131812F5F3F4F2F733327318320835D
:1001E00090E008958FEF9FEF0895DC011C96ED914C
:1001F000FC911D97DF01A05CBF4F2D913C911197A1
:1002000012968D919C9111972817390739F08D918D
:100210009C91E80FF91F808190E008958FEF9FEF88
:100220000895FC0124853585F901E05CFF4F80814C
:100230009181329620813181821B930B8F73992794
:10024000089583EB91E00C941101CF92DF92EF922D
:10025000FF920F931F93CF93DF936C01EB017B0110
:10026000E40EF51E00E010E0CE15DF0561F06991A7
:10027000D601ED91FC910190F081E02DC601099528
:10028000080F191FF1CFC801DF91CF911F910F9176
:10029000FF90EF90DF90CF90089590E0FC01E85937
:1002A000FF4F2491FC01EC55FF4F3491FC01E057C6
:1002B000FF4FE491EE2309F43CC0222339F12330AF
:1002C00091F038F42130A9F0223001F584B58F7D0A
:1002D00012C0263091F02730A1F02430B9F480917B
:1002E00080008F7D03C0809180008F778093800095
:1002F0000DC084B58F7784BD09C08091B0008F7721
:1003000003C08091B0008F7D8093B000F0E0EE0FCD
:10031000FF1FE458FF4FA591B4919FB7F894611166
:1003200004C08C913095382302C0EC913E2B3C9355
:100330009FBF0895009769F0FC0101900020E9F744
:100340003197AF01481B590BBC0183EB91E00C9432
:10035000250180E090E008958F929F92AF92BF9226
:10036000EF92FF920F931F93CF93DF93CDB7DEB73A
:10037000A1970FB6F894DEBF0FBECDBF162F042F86
:1003800019A2423008F40AE07E0121E2E20EF11CDB
:10039000802E912CA12CB12C612FA50194010E94DB
:1003A0008306029F1019112481E0E81AF1081A301F
:1003B00014F4105D01C0195CF7011083122F732F24
:1003C000CA01232B242B252B39F7C7010E949A0140
:1003D000A1960FB6F894DEBF0FBECDBFDF91CF91CF
:1003E0001F910F91FF90EF90BF90AF909F908F90D3
:1003F00008951F920F920FB60F9211242F933F93DF
:100400008F939F93AF93BF938091AF019091B00171
:10041000A091B101B091B2013091AE0123E0230F60
:100420002D3720F40196A11DB11D05C026E8230F2C
:100430000296A11DB11D2093AE018093AF01909350
:10044000B001A093B101B093B2018091AA01909143
:10045000AB01A091AC01B091AD010196A11DB11D00
:100460008093AA019093AB01A093AC01B093AD012E
:10047000BF91AF919F918F913F912F910F900FBEA0
:100480000F901F9018951F920F920FB60F92112484
:100490002F933F938F939F93EF93FF93209162014C
:1004A00030916301809164019091650128173907AB
:1004B00031F48091C1008F7D8093C10014C0E09120
:1004C0006401F0916501EE5DFE4F20818091640131
:1004D0009091650101968F739927909365018093A0
:1004E00064012093C600FF91EF919F918F913F91FE
:1004F0002F910F900FBE0F901F9018951F920F9283
:100500000FB60F9211242F934F935F938F939F9366
:10051000EF93FF938091C00082FD1CC02091C60024
:100520008091A6019091A7014091A8015091A90145
:1005300001968F7399274817590771F0E091A6012A
:10054000F091A701EA59FE4F20839093A701809371
:10055000A60102C08091C600FF91EF919F918F91FB
:100560005F914F912F910F900FBE0F901F90189594
:10057000E3EBF1E01382128288EE93E0A0E0B0E0BA
:1005800084839583A683B78384E091E091838083FD
:1005900086E691E09587848782E291E09787868757
:1005A00085EC90E0918B808B84EC90E0938B828B38
:1005B00080EC90E0958B848B81EC90E0978B868B20
:1005C00082EC90E0918F808F86EC90E0938F828F09
:1005D00084E0848F83E0858F87E0868F85E0878F36
:1005E00081E080A30895789484B5826084BD84B549
:1005F000816084BD85B5826085BD85B5816085BD1E
:1006000080916E00816080936E00109281008091D5
:10061000810082608093810080918100816080935D
:100620008100809180008160809380008091B10082
:1006300084608093B1008091B00081608093B000AD
:1006400080917A00846080937A0080917A00826041
:1006500080937A0080917A00816080937A00809103
:100660007A00806880937A001092C100ECEAF0E092
:100670002491E8E9F0E08491882399F090E0880FD4
:10068000991FFC01EA57FF4FA591B491FC01E45872
:10069000FF4F859194918FB7F894EC91E22BEC93F6
:1006A0008FBFE2EBF0E02491EEE9F0E08491882343
:1006B000C1F090E0880F991FFC01EA57FF4FC591E8
:1006C000D491FC01E458FF4FA591B4919FB7F894E1
:1006D0008881E22FE0958E2388838C91E823EC9328
:1006E0009FBFE091C701F091C80181E090E09C01BB
:1006F0000090D30102C0220F331F0A94E2F7208337
:10070000E091C301F091C4011082E091C501F09124
:10071000C6012FEC20831092D401E091C901F09121
:10072000CA0140819C010090CF0102C0220F331FFB
:100730000A94E2F7242B2083E091C901F091CA01C9
:1007400040819C010090D00102C0220F331F0A9407
:10075000E2F7242B2083E091C901F091CA01408186
:100760009C010090D10102C0220F331F0A94E2F7CE
:10077000242B2083E091C901F091CA0120810090CF
:10078000D20102C0880F991F0A94E2F78095822354
:100790008083C0E4C0937C0080917A008064809361
:1007A0007A0080917A0086FDFCCF6091780080917C
:1007B000790070E0782B072E000C880B990B0E94B3
:1007C0005C056B017C0160931E0170931F01809397
:1007D00020019093210120E030E048EC51E40E9498
:1007E0000C06181614F460E001C061E088E00E9475
:1007F0004D01A7019601C701B6010E947E0688231C
:1008000019F080E191E01AC046015701E894B7F869
:100810002FEF3FEF4FE75FE7C501B4010E947E066F
:1008200081110FC02FEF3FEF4FE75FE7C501B40124
:100830000E941F0518162CF484E191E00E949A0191
:1008400081C02FEF3FEF4FE75FE4C701B6010E9481
:100850000C0618161CF488E191E0F0CF2FEF3FEF63
:100860004FE75FECC701B6010E941F0587FDF3CF7C
:1008700020E030E0A901C701B6010E941F0587FFF3
:1008800009C06DE283EB91E00E948800F7FAF094D2
:10089000F7F8F0942AE037ED43EA5BE3C701B601CD
:1008A0000E94B3046B017C010E942B054B015C018B
:1008B0000E945A059B01AC01C701B6010E94B20417
:1008C0006B017C014AE0C501B4010E94AC018CE1DE
:1008D00091E00E949A01D3E0D150A1F120E030E0F4
:1008E00040E251E4C701B6010E9411064B015C01D0
:1008F0000E9424056B01770FEE08FF08F7FE10C079
:100900006DE283EB91E00E94880088279927DC0143
:100910008C199D09AE09BF094AE0BC01CD0103C095
:100920004AE0C701B6010E94AC01C701B6010E94AE
:100930005C059B01AC01C501B4010E94B2046B01CE
:100940007C01CACF6DE083EB91E00E9488006AE0F1
:1009500083EB91E00E9488000E9421011BCFF89454
:100960000C94AB065058BB27AA270E94CA040C94CB
:10097000D2050E94C40538F00E94CB0520F039F45E
:100980009F3F19F426F40C94C1050EF4E095E7FBA3
:100990000C94BB05E92F0E94E30558F3BA176207D0
:1009A00073078407950720F079F4A6F50C940506E3
:1009B0000EF4E0950B2EBA2FA02D0B01B90190017A
:1009C0000C01CA01A0011124FF27591B99F0593FBE
:1009D00050F4503E68F11A16F040A22F232F342F06
:1009E0004427585FF3CF469537952795A795F04054
:1009F0005395C9F77EF41F16BA0B620B730B840B69
:100A0000BAF09150A1F0FF0FBB1F661F771F881F20
:100A1000C2F70EC0BA0F621F731F841F48F4879578
:100A200077956795B795F7959E3F08F0B0CF93956A
:100A3000880F08F09927EE0F9795879508950E94E3
:100A4000970508F481E008950E942B056894B11180
:100A50000C94060608950E94EB0588F09F5798F0C5
:100A6000B92F9927B751B0F0E1F0660F771F881FB3
:100A7000991F1AF0BA95C9F714C0B13091F00E94CD
:100A80000506B1E008950C940506672F782F882796
:100A9000B85F39F0B93FCCF3869577956795B395F4
:100AA000D9F73EF490958095709561957F4F8F4F63
:100AB0009F4F0895E89409C097FB3EF49095809568
:100AC000709561957F4F8F4F9F4F9923A9F0F92F14
:100AD00096E9BB279395F695879577956795B79592
:100AE000F111F8CFFAF4BB0F11F460FF1BC06F5F78
:100AF0007F4F8F4F9F4F16C0882311F096E911C08A
:100B0000772321F09EE8872F762F05C0662371F0AA
:100B100096E8862F70E060E02AF09A95660F771FBE
:100B2000881FDAF7880F9695879597F90895990F9A
:100B30000008550FAA0BE0E8FEEF16161706E807A7
:100B4000F907C0F012161306E407F50798F0621BC8
:100B5000730B840B950B39F40A2661F0232B242B9D
:100B6000252B21F408950A2609F4A140A6958FEFBC
:100B7000811D811D089597F99F6780E870E060E00E
:100B800008959FEF80EC089500240A941616170626
:100B900018060906089500240A941216130614066E
:100BA00005060895092E0394000C11F4882352F0D1
:100BB000BB0F40F4BF2B11F460FF04C06F5F7F4F89
:100BC0008F4F9F4F089557FD9058440F551F59F070
:100BD0005F3F71F04795880F97FB991F61F09F3F2A
:100BE00079F087950895121613061406551FF2CF53
:100BF0004695F1DF08C0161617061806991FF1CFA3
:100C000086957105610508940895E894BB276627C9
:100C10007727CB0197F908950E94970508F48FEF85
:100C200008950E9424060C94D2050E94C40538F051
:100C30000E94CB0520F0952311F00C94BB050C9479
:100C4000C10511240C9406060E94E30570F3959FDC
:100C5000C1F3950F50E0551F629FF001729FBB27B3
:100C6000F00DB11D639FAA27F00DB11DAA1F649F4F
:100C70006627B00DA11D661F829F2227B00DA11D02
:100C8000621F739FB00DA11D621F839FA00D611D88
:100C9000221F749F3327A00D611D231F849F600DA9
:100CA000211D822F762F6A2F11249F5750409AF0D2
:100CB000F1F088234AF0EE0FFF1FBB1F661F771F5E
:100CC000881F91505040A9F79E3F510580F00C9429
:100CD000BB050C9406065F3FE4F3983ED4F386957B
:100CE00077956795B795F795E7959F5FC1F7FE2BC9
:100CF000880F911D9695879597F908950E949705FD
:100D0000880B990B0895A1E21A2EAA1BBB1BFD01AB
:100D10000DC0AA1FBB1FEE1FFF1FA217B307E407DA
:100D2000F50720F0A21BB30BE40BF50B661F771F32
:100D3000881F991F1A9469F7609570958095909512
:100D40009B01AC01BD01CF010895EE0FFF1F05907F
:0A0D5000F491E02D0994F894FFCF10
:100D5A0000000000880025011101D500F500CA0035
:0E0D6A006E616E00696E66006F7666002E0088
:00000001FF
